:020000040800F2
:10000000000C0020F54C0008AD3F0008AF3F000891
:1000100000000000000000000000000000000000E0
:10002000000000000000000000000000B13F0008D8
:100030000000000000000000B33F0008B53F0008CA
:10004000000000000000000000000000454D000816
:10005000454D0008454D0008454D0008454D000838
:100060000000000000000000000000000000000090
:10007000254A0008454D0008454D000800000000D5
:1000800000000000454D000800000000454D00083C
:10009000000000000000000000000000454D0008C6
:1000A00000000000454D000800000000454D00081C
:1000B0000000000000000000000000000000000040
:1000C00002B4714649084900095C49008E4402BCEB
:1000D0007047C04603B47146490840004900095AB8
:1000E00049008E4403BC7047002243088B4274D3FE
:1000F00003098B425FD3030A8B4244D3030B8B4229
:1001000028D3030C8B420DD3FF22090212BA030C31
:100110008B4202D31212090265D0030B8B4219D312
:1001200000E0090AC30B8B4201D3CB03C01A524132
:10013000830B8B4201D38B03C01A5241430B8B427A
:1001400001D34B03C01A5241030B8B4201D30B0363
:10015000C01A5241C30A8B4201D3CB02C01A52418A
:10016000830A8B4201D38B02C01A5241430A8B424D
:1001700001D34B02C01A5241030A8B4201D30B0236
:10018000C01A5241CDD2C3098B4201D3CB01C01A50
:10019000524183098B4201D38B01C01A524143095A
:1001A0008B4201D34B01C01A524103098B4201D348
:1001B0000B01C01A5241C3088B4201D3CB00C01AB5
:1001C000524183088B4201D38B00C01A524143082D
:1001D0008B4201D34B00C01A5241411A00D2014652
:1001E000524110467047FFE701B5002000F0F0F8DB
:1001F00002BDC0460029F7D076E7704703460B439F
:100200007FD4002243088B4274D303098B425FD30F
:10021000030A8B4244D3030B8B4228D3030C8B423B
:100220000DD3FF22090212BA030C8B4202D3121221
:10023000090265D0030B8B4219D300E0090AC30BF6
:100240008B4201D3CB03C01A5241830B8B4201D3A3
:100250008B03C01A5241430B8B4201D34B03C01A8C
:100260005241030B8B4201D30B03C01A5241C30A04
:100270008B4201D3CB02C01A5241830A8B4201D375
:100280008B02C01A5241430A8B4201D34B02C01A5F
:100290005241030A8B4201D30B02C01A5241CDD204
:1002A000C3098B4201D3CB01C01A524183098B424F
:1002B00001D38B01C01A524143098B4201D34B0138
:1002C000C01A524103098B4201D30B01C01A52419B
:1002D000C3088B4201D3CB00C01A524183088B4222
:1002E00001D38B00C01A524143088B4201D34B000B
:1002F000C01A5241411A00D201465241104670477D
:100300005DE0CA0F00D04942031000D34042534081
:1003100000229C4603098B422DD3030A8B4212D341
:10032000FC22890112BA030A8B420CD38901921173
:100330008B4208D3890192118B4204D389013AD0B0
:10034000921100E08909C3098B4201D3CB01C01A85
:10035000524183098B4201D38B01C01A5241430998
:100360008B4201D34B01C01A524103098B4201D386
:100370000B01C01A5241C3088B4201D3CB00C01AF3
:10038000524183088B4201D38B00C01A5241D9D20B
:1003900043088B4201D34B00C01A5241411A00D28C
:1003A0000146634652415B10104601D34042002B88
:1003B00000D54942704763465B1000D3404201B507
:1003C000002000F005F802BD0029F8D016E77047BC
:1003D0007047C046002B15D1002A13D1002906DB37
:1003E00001DC002806D00020C043410802E0802143
:1003F0000906002007B4024801A14018029003BD7D
:10040000D1FFFFFF03B4684601B5029804F0CAFCAF
:10041000019B9E4602B00CBC7047C04610B5002937
:1004200003D100F007F8203002E0080000F002F8E5
:1004300010BDC0461C2101231B04984201D3000CAF
:1004400010391B0A984201D3000A08391B09984247
:1004500001D30009043902A2105C40187047C0465D
:10046000040302020101010100000000000000007D
:100470000023C25C0133002AFBD1581E70470000E4
:100480000448054B10B5834203D0044B002B00D029
:10049000984710BD94030020940300200000000042
:1004A00006480749091A8B10C90FC91810B5491019
:1004B00003D0044B002B00D0984710BD94030020BC
:1004C000940300200000000010B5074C2378002B97
:1004D00009D1FFF7D5FF054B002B02D0044800E0FF
:1004E00000BF0123237010BD940300200000000012
:1004F000D84F0008054B10B5002B03D00449054820
:1005000000E000BFFFF7CCFF10BDC04600000000B8
:1005100098030020D84F000803008218934200D1AE
:10052000704719700133F9E770B500260C4C0D4D7A
:10053000641BA410A64209D1002604F04DFD0A4C0C
:100540000A4D641BA410A64205D170BDB300EB5840
:1005500098470136EEE7B300EB5898470136F2E7CB
:10056000605A0008605A0008645A0008605A00087F
:10057000054B82B05A6B02435A635B6B1840019083
:10058000019B02B07047C0460010024080235B020E
:10059000984211D3802380225B04984209D3182308
:1005A0005205904200D30433D840094A105CC01A67
:1005B000704710235203F4E7FF2803D98022082351
:1005C0005201EEE70F2383429B415B429B00EBE726
:1005D000C2590008F8B50500FFF7D8FF041E22DC59
:1005E00001231B1A2800D84080271F260025BF049E
:1005F00000230200190004F0A7FB8900800F0843C4
:10060000002901DAED194008013E7F08002EEFD1E4
:10061000A406281B0023064AC11704F095FB4900D5
:10062000C00F0843F8BD431E28009840DCE7C046D1
:10063000FC0BB95880221F4B70B55C6952042243F1
:100640005A6101225C6922435A61EFF3108572B648
:1006500080260022091A36030C580132D2B210C08B
:100660001F2A03D15C6934435C61F5E7202AF3D18A
:1006700085F310888021104C49021A691000084047
:100680000A420ED101211A690A4210D01A690B4C94
:100690008A431A615A6922405A615A698A435A61E7
:1006A00070BD2268033220688242FCDAE5E7080068
:1006B000F6E7C04600200240D0040020FFFFFFFE06
:1006C00000220C4B10B55A600B4B023259690A4399
:1006D0005A61FF2202608020084940021A690242E2
:1006E00005D00A6803320C68A242FCDAF6E7044A35
:1006F0001A6110BDDC04002000200240D00400205C
:1007000011800000002310B5064A59008C18515C76
:10071000814201D1607810BD0133332BF5D1002027
:10072000F9E7C046D2590008F7B5144D06002F006E
:10073000134B009101933478002C09D07F239C4304
:100740002C70307801361840FFF7DCFF0443E4B228
:10075000019B2C7001359D42EDD1009B012B02D0F5
:10076000022B05D0F7BD80223B7813433B70F9E79D
:1007700080227B7813437B70F4E7C0466804002036
:100780006B040020244B70B59A68D20719D499687D
:10079000224A114018320A439A609A68002A10DAF5
:1007A0001F4A1168033110688142FCDA99680029F8
:1007B00007DA1168033110688142FCDA9B68002B6C
:1007C00000DB70BD174B00241B685869164B0200F4
:1007D0001860164B1D000132511E0978002917D1EF
:1007E000134C2560FFF7A0FFEA78124B1968002927
:1007F000FCD0002AFAD0002120681960431C236035
:10080000FFF792FF23681B78002BEDD12560EBE703
:1008100019705C700133DEE700240140E8FFFF7FC0
:10082000D0040020D404002048040020B0000020A0
:10083000A8000020AC040020F8B506000524FFF74E
:10084000A5FE241A030000202500844200DAC1E03E
:100850009E40674BF11800D4AEE080223100920533
:1008600064480023081802D492185B4101006248D2
:100870000E1806D4DF0750085908384312184B41A8
:1008800031005E480E1806D49F0790089908384337
:1008900012184B4131005A480E1806D45F07D00891
:1008A000D908384312184B41310056480E1806D467
:1008B0001F0710091909384312184B4131005248DB
:1008C0000E1806D4DF0650095909384312184B4157
:1008D00031004E480E1806D49F06900999093843F6
:1008E00012184B4131004A480E1806D45F06D00951
:1008F000D909384312184B41310046480E1806D426
:100900001F06100A190A384312184B413100424899
:100910000E1806D4DF05500A590A384312184B4105
:1009200031003E480E1806D49F05900A990A3843B4
:1009300012184B4131003A480E1806D45F05D00A10
:10094000D90A384312184B41310036480E1806D4E4
:100950001F05100B190B384312184B413100324858
:100960000E1806D4DF04500B590B384312184B41B4
:1009700031002E480E1806D49F04900B990B384373
:1009800012184B413100802000060818002104F0A5
:10099000DBF94B00C60F1E43CF0F042C01D1B61953
:1009A0007F41002D0BD13000042C13D82000FFF71D
:1009B00087FB1C19161210008022120650E7320025
:1009C0003B003000390004F0BFF900270E00013D64
:1009D000E7E73000F8BD3806360A3043FAE7380357
:1009E000360DFAE7B801B60EF7E7F800760FF4E730
:1009F00009E88D4E04F446A727B819CC390870E3EE
:100A0000497CECF0D0733DF89FAC0FFC75F503FE0C
:100A1000ADFE00FFD63F80FFFB0FC0FF0004E0FFEC
:100A20000001F0FF4000F8FF1000FCFF0400FEFF93
:100A3000F0B58BB06C461E4BE0CBE0C4E0CBE0C41D
:100A4000E0CBE0C41B682360002903DA2D23494270
:100A500003700130170000247B1E9F410923A44628
:100A6000FF019A1A6D46A300EB58302502E00135CC
:100A7000C91AEDB28B42FADD302D06D86346002B41
:100A800003D1A2420CD13B0005E0131B1E007342B0
:100A900073415B423B402B43037001239C46013072
:100AA00001340A2CDED1002303700BB0F0BDC04628
:100AB000F04F000810B5FFF7DBFC10BD70B5202229
:100AC0000025012103781C00313C082C05D91C00AD
:100AD0009443582C08D0002B01D10A2406E02D2B7A
:100AE00000D10D000130EDE71024013002000A268C
:100AF00000201378002B03D1002D00D0404270BDA0
:100B000019006139052904D8102C02D100010A31DD
:100B1000081819004139052904D8102C02D1000108
:100B20000A310818303BD9B2092905D831004143B0
:100B3000102C00D1010158180132DAE7F0B5060097
:100B40008BB0964B00920D000D22954906A8059397
:100B500004F038FA934B31681A78D2B201925A787D
:100B6000D2B202929B78DBB2039300290CDB002205
:100B700006A8FFF75DFF302406A8FFF79BFF0C28AF
:100B80000FDC06AB1B1806E04942F0E75A78013843
:100B90009A701A785A70013B0028F7D104AB1C7286
:100BA000EAE73368002B04DA002D02D02D2304AAD3
:100BB0001372012204AB1B7D05A883707A4B1A6067
:100BC0007A4A1468002CFCD121001C60FFF7ACFDB0
:100BD00001220C27764B1A60744B76491868764AC6
:100BE000032802D00868904216DD002018600B68C8
:100BF000934203DC06A8FFF761FF306000226F4BD1
:100C00001A606B4B1A60674B019A1A70029A5A70FD
:100C1000039A9A700BB0F0BD186801280CD100221D
:100C20001A60634B19688C4662466449012A2ED1CA
:100C300000221A6063460B60614B1A68012A07D9CB
:100C40001A68604B920819685F4B1341194203D030
:100C50005B4B1B68012B32D1594B1A68012A01D119
:100C600000221A60524B1A6806AB002A55D005AA1A
:100C7000082C0FDC0134092C0DD1002D4BD02D2177
:100C800011701B782D2B00D02023092409E0186057
:100C90000023D0E700242300313313703B1B06AA46
:100CA000D35C05A88370009B591E091B4B42594118
:100CB0004900FFF739FD434A136801331360434B82
:100CC0001A68012A07D91A683E4B920819683E4BE8
:100CD0001341194204D03D4B1B68012B00D07BE728
:100CE0003A4B1A68012A01D100221A60304B1A6867
:100CF00006AB002A3ED005AA002C02DD013C092CDF
:100D00001ED1002D20D02D2111701B782D2B00D04D
:100D1000202309241FE02C00BDE7092C09D03A1B31
:100D20009B5C3021392B01D00133D9B206AB9954E9
:100D3000B4E730221978914200D1033A1A70A0E743
:100D4000082C02DD2D2302E0082423003133137028
:100D50003B1B06AAD35C05A88370009B591E091B88
:100D60004B4259414900FFF7DFFC164A1368013333
:100D7000136031E7092C09D03A1B9B5C3921302BD9
:100D800001D9013BD9B206AB9954E1E73022197879
:100D9000914200D1033A1A70B7E7C046316430007F
:100DA0001850000868040020A404002064040020F7
:100DB000A0040020B00400201F4E00009804002072
:100DC0005C040020D0040020FF0300006004002029
:100DD0000022F0B5524B534C534F87B01A60059028
:100DE00020683968514B484380211B68504D01935E
:100DF000019A504B49011A6004932B6B3A685B0FC0
:100E00009940891AFFF770F9E66B801B60602068D3
:100E10003E68E36B704380262A6B7601520F964042
:100E20003968721A5343C01AFFF7D4FB06008020BA
:100E30002B6B40015B0F98403A68801AFFF7CAFBA2
:100E40003D4BF618361AA660A26AE36A0292039333
:100E5000A3682769216B626BDF1B080011003A0051
:100E6000FB1712184B4102980399FFF7B3FAEE688B
:100E7000324BF618059B3618A663002B4ED02B6814
:100E80009B0625D51220A36B0A2158432C4BC01872
:100E9000FFF7B4F9C8231B01C11802220198FFF71C
:100EA000C7FD049B1C682000FFF704FE2B68201878
:100EB0009B062449DC0F002B0EDB03000E681A1A78
:100EC000B66FB25C002A0FD01A705C700133F5E780
:100ED000A16B1A4BC918E0E7030000260C681A1A28
:100EE000646FA25C002A06D12B685B0507D401223F
:100EF000154B1A6012E01A705E700133EEE72B6B2F
:100F0000DB009B0EF3D12B6B5B029B0EEFD12B6BA7
:100F10001B05ECD12B6BDB03DB0EE8D107B0F0BD7A
:100F200094040020E8030020F0000020AC00002022
:100F3000B00300204804002064BC0CAA4D95FFFFBC
:100F40006A7FF8FFD40400208C040020F7B5364BEC
:100F500001921A680023520607000D00D00F9A4232
:100F60003FDA324C324E3348236037603268591CC6
:100F7000D25C002A36D1002D0ADD2E4B1E683000CF
:100F8000FFF798FD8023401B325C5B4213433354D0
:100F900029480600294D28600378002B02D1019BC7
:100FA000002B02D02168002923D00023244A2549A0
:100FB0001360204A244E1268244D13700A6830686A
:100FC0002F682360BC46471EB841571EBA4167468A
:100FD0009200400080187A1E97413360C0192B6040
:100FE0000B60FEBD0768FA54002203685A540B00D8
:100FF000BCE7FFF799FB164B164A1968002902D186
:101000002068002809D000221A602B681B789342C0
:1010100000D12E6028680130BCE711680029ECD0AF
:10102000FFF7D6FEE7E7C046B00300204C040020DF
:1010300048040020AC000020B0000020A8000020E0
:10104000B0040020640400205C0400206004002040
:10105000AC040020940400200023F7B5314C324E3C
:101060002360050001910092336098420ADD2F4B06
:101070001F683800FFF71EFD8023401B3A5C5B426F
:1010800013433B542A4807002A4D28600378002B5D
:1010900002D1019B002B05D03168002902D1009BB1
:1010A000002B1BD10023214A23601268224E234CBF
:1010B00013702268224D30681B4F29683B603360F3
:1010C0002B602360431E984113005A1E93414A1E11
:1010D00091419B004000C0184018FEBDFFF724FB63
:1010E000184B194A1968002902D13068002812D01B
:1010F00000221A602B681B78934200D12F6022686F
:10110000124B9A4204DD009B013B009300232360B5
:1011100028680130B8E711680029E3D0FFF758FECE
:10112000DEE7C046B00400204C040020AC000020E4
:10113000B0000020A80000205C040020640400200F
:1011400060040020AC040020940400201F4E000026
:10115000F8B51A4B1A4E1B681A4DDB6832681A4CE8
:101160002B60092A27DD01332B6000231F002A682A
:101170002068D25C591C002A0ED0C25423685F54E8
:101180000B00F4E7C25423685F540B002A68206800
:10119000D25C591C002AF5D127683800FFF78AFC79
:1011A0003168381800222860FFF742FC00212068CF
:1011B000FFF7BAFAF8BD00231F00E7E7D4040020C8
:1011C0003804002048040020AC0000200023F7B5BC
:1011D0009C460C0001922C4F42182C4E920039680C
:1011E000306889585D1CC95C002922D1C378284E1B
:1011F000002B28D11900FFF797FA2649264B3268B1
:10120000002A1CD025490B68012B04D1019B013415
:101210009C4200D10024224A1368012B03D1013CD7
:1012200001D5019C013C00230B602000136033605A
:10123000FEBDC1546146336859552B00CFE70A689B
:101240009A42DCDDDEE7174F174D38002F60FFF7BD
:101250006BFA104B104A9C46144B31680029D1D1CF
:10126000604600689042CDDC18680028F5D02868F8
:101270001960431C2B60FFF757FA2B681B78002B73
:10128000E7D12F60E5E7C046D4040020AC00002081
:101290004C040020B00400201F4E00005C0400201D
:1012A00060040020B0000020A8000020AC04002052
:1012B000F0B585B001938300029300231F000D0059
:1012C000264827490392029C02680E681259D45C92
:1012D0005A1C002C18D13000FFF7ECFB214F3018BE
:1012E000019A29683860FFF7A3FB01222000110052
:1012F000FFF7B2FE0138012804D81B4B1A681B4BBC
:101300009A4206DD05B0F0BDF4540B689F541300FB
:10131000D9E728000399019AFFF710FC00239C46A7
:101320000E480F49029C026812590C68D65C5A1C80
:10133000002E0CD12000FFF7BDFB019A2018296870
:101340003860FFF775FB012230001100D0E7E6544A
:1013500064460B689C541300E4E7C046D4040020A4
:10136000AC00002048040020B00400201F4E000004
:10137000F0B5764F0D68764A3B6887B0040003915C
:10138000AD189B0607D512200A216843FEF736FFE9
:10139000C8231B01C518A30002936E4B029A1B6859
:1013A0006D4E9B586D4A05951360002319000092FD
:1013B000009A1268D45C3268019201985A1C002C81
:1013C00024D1FFF777FB019B02221818009B29000C
:1013D0001860FFF72DFB35682800FFF76BFB3A68B4
:1013E000009B2D1892061D605A48D30F002A3CDB43
:1013F0001D005A4C0268591C926FD25C002A15D00D
:101400002668F25423685D540B00F3E7C454336834
:1014100099541300CCE70E68335514000B689D54A3
:101420000368621C5B6F1B5D002BF4D1012200205E
:101430001100FFF711FE0138012804D8484B1A6843
:10144000484B9A4214DD0598474C3A6803199206B6
:1014500007D5464B1221C3180A205843FEF7CEFE8B
:101460000319039A136007B0F0BD25003B49D7E785
:10147000022205A80121FFF761FB3B4C05983A6861
:101480000319920607D5394B1221C0180A23584375
:10149000FEF7B4FE0319DA43D217134039682C4A19
:1014A0009D18890607D512200A216843FEF7A6FE7B
:1014B000C8231B01C51800239C462649264E0595C6
:1014C00002980A681258D45C3268019201985A1C3A
:1014D000002C25D1FFF7EEFA019B02221818009B81
:1014E00029001860FFF7A4FA35682800FFF7E2FA30
:1014F0003A68009B2D1892061D601648D30F002AEB
:1015000020DB1D00154C0268591C926FD25C002A2A
:1015100000D18BE72668F25423685D540B00F2E794
:10152000C4546046336898541300C9E70E683355B5
:1015300014000B689D540368621C5B6F1B5D002BDD
:10154000F4D173E725000549F5E7C046B003002054
:101550004D95FFFFD4040020AC000020480400207B
:10156000B00400201F4E0000B36A000080F3FFFFAC
:10157000F8B500260F4CA0692169E369226A401A78
:10158000E569276A5A43C117330003F0DDFBEA1B04
:10159000D317FEF71FFF02000B00A262E3623300C5
:1015A000A06AE16AE269FEF715FF02000B00226300
:1015B0006363F8BDE8030020F0B55B4E04685B4A46
:1015C000336885B001900291A4189B0607D51220BC
:1015D0000A216043FEF712FEC8231B01C418544DB4
:1015E000544B28680222210018600093FFF720FA6C
:1015F00000212868FFF798F800224F4B1A604F4FE0
:101600003D68002D04D14C4B1A684D4B9A4212DDB7
:101610004C4D336860199B0607D50A204A4B1221AE
:10162000E4186043FEF7EAFD4019019B18600023AF
:101630003B6005B0F0BD454B03931B68002B12D0F7
:10164000434F3B68002B0ED02C003A4B0222186807
:101650002900FFF7EDF9364B29001868FFF764F809
:10166000039B3D601D603A4B1A68012A07D9394A2D
:1016700019681068384A89080A41104202D01A686D
:10168000012A15D11A68012A01D100221A60029B91
:101690000222E418009B21001868FFF7C9F9244BC7
:1016A00000211868FFF740F82A4A136801331360D5
:1016B000264B1A68012A07D9264A19681068264A53
:1016C00089080A41104202D01A68012A15D11A6805
:1016D000012A01D100221A60029B0222E41A009B17
:1016E00021001868FFF7A4F9114B00211868FFF7D3
:1016F0001BF8184A136801331360184B9C4200DD35
:101700001C003368164A9B06DB0F1649013B134049
:101710005B18A34200DC72E73468A406E40F013CC6
:10172000144064186BE7C046B00300204D95FFFFDE
:10173000AC00002048040020B00400206404002015
:101740001F4E0000B36A000080F3FFFF600400201A
:101750005C040020D0040020FF0300003C86010050
:10176000BA4C00009348FFFF70B50400202520000C
:10177000FFF7A0F902280ADC201804E002780138FB
:101780008270027842708442F8D12570EFE770BD14
:10179000F0B54D4D87B0046801934C4E0290286817
:1017A000039104922100019A3060FFF741F9286803
:1017B000FFF7DAFF00212868FEF7B6FF0022444B4E
:1017C0001A60444B1D68002D05D0029A1460002257
:1017D0001A6007B0F0BD3E4A11683F4A9142F4DCFE
:1017E0003E4B05931B68002B15D03D4F3B68002BEB
:1017F00011D0364B29001868019AFFF719F9324CBD
:101800002068FFF7B1FF20682C002900FEF78CFF4D
:10181000059B3D601D60324B1A68012A07D91A6882
:10182000304B92081968304B1341194203D02C4BAE
:101830001B68012B1BD12A4B1A68012A01D10022F7
:101840001A60039B01349C4200DD1C00019A2100B8
:101850003068FFF7EDF81C4D2868FFF785FF002181
:101860002868FEF761FF1F4A1368013313601B4BA2
:101870001A68012A07D91A681A4B920819681A4B74
:101880001341194203D0154B1B68012B99D1134BFF
:101890001A68012A01D100221A60049B013C9C4273
:1018A00000DA1C00019A21003068FFF7C1F8064DEC
:1018B0002868FFF759FF00212868FEF735FF094A1D
:1018C0001368013313607CE7AC000020480400205B
:1018D000B0040020640400201F4E000060040020BB
:1018E0005C040020D0040020FF030000144B1549C5
:1018F0009A6810B5521819688907890F012913D001
:10190000114C12485968002A16DB8A1A22605A685C
:101910000260FA221969D20051430D4801605B69E7
:101920005A430C4B1A6010BD19688907890F0129A9
:10193000EFD10548054CE5E7216059688A1AE7E7C9
:10194000B00300204D95FFFF700400206C040020C0
:10195000C0040020C404002030B501240C4B9D6855
:101960002C439C600400403420C81D60A042FBD181
:101970000C000800343420C81D608442FBD1002ACA
:1019800003D000201B684B6330BD1868FCE7C046DD
:101990000030024070B53E4B3E4C00252360E360B2
:1019A000E068FEF717FE3C4B206163616069FEF75B
:1019B00011FEE022394E3A4BA061E6612362394BB9
:1019C0001206A262E3622B00A06AE16AE269FEF7F6
:1019D00001FD02000B002263636303223249E563C9
:1019E0000B68200093430B600B681D3293430B6020
:1019F0000B681C3A93430B6040230A681343802210
:101A00000B602A4B8B60CB60294B8B61294BCB61E0
:101A10000D614D610B6893430B600B68264A1340C0
:101A20000B600B68254A134010220B600B68934330
:101A30000B600B68083A93430B60214B4B620B62BF
:101A40004E608A620B681F4A13400B600B6B1E4A84
:101A500013400B630B6B1D4A13400B630B6B1C4A4B
:101A600013400B630B6B1B4A1B0B1B030B630B6BB2
:101A7000DB00DB080B630B6813400B6080230A68F4
:101A8000DB0113430B600122CD62FFF765FF70BDE0
:101A900010270000E80300203F04000077740000D6
:101AA000E78B00001B180000B0030020B36A0000A1
:101AB000AB9500002B570000FFFEFFFFFFFDFFFF6F
:101AC0006B760000FFFBFFFFFFFF7FE0FFFF81FF62
:101AD000FF0FFEFFFFDFFFFF10B5040021002368AA
:101AE000032204304431013310D00022FFF734FFC9
:101AF000A36F0022834209D12368054901328B423A
:101B000004D0044A9B185A4253415A00100010BD99
:101B1000EFBEADDE00005321F8B5002601273400EA
:101B2000084BA5005859FFF7D7FF074B585101281C
:101B300002D13E00054B1C600134052CF0D1300071
:101B4000F8BDC04694000020800000203004002032
:101B5000304A8AB01368DB05DB0D019313689B03E1
:101B6000DB0D029313682C4A1B019B0D0393136832
:101B7000DB05DB0D04931368284A1B011B0D05933D
:101B8000274B1B689B039B0B0693264B1B689B03F1
:101B90009B0B079313689BB2089313689B009B0CE5
:101BA0000993214B5968019A914201D0019A5A60D8
:101BB0005969029A914201D0029A5A619968039A2E
:101BC000914201D0039A9A60D968049A914201D057
:101BD000049ADA601969059A914201D0059A1A614E
:101BE0009969069A914201D0069A9A61D969079A31
:101BF000914201D0079ADA61196A089A914201D09C
:101C0000089A1A62596A099A914201D0099A5A624D
:101C10000AB070471C01FF1F2001FF1F2C01FF1F8E
:101C20002401FF1F2801FF1FFC20024030B503687C
:101C30000500A1B0013322D0124B7C22FF2101A864
:101C40000093FEF769FC02F00BFFFA20800002F01F
:101C500051FF041E0DD169462800FEF7EBFC02007F
:101C6000012806D1084B21001B68FC33D86AFFF716
:101C70006DF9FA20800002F03DFF02F003FF21B071
:101C800030BDC0460000ADDED4040020802330B556
:101C900004002A49A1B05B020A6915001D401A42DE
:101CA000FAD102F0DDFE802229006846FEF734FCFE
:101CB0004022234901A803F085F93822214911A8BF
:101CC00003F080F9012211A901A8FFF745FEFA20CF
:101CD0001D4B8000009302F00DFF002802D1200070
:101CE000FEF7EEFCAB001B59013308D0174B012265
:101CF0001B680021FC33D86AFFF728F91AE0013588
:101D0000202DEFD1FA20800002F0F4FE051E0DD147
:101D100069462000FEF78EFC0200012806D10B4B1D
:101D200029001B68FC33D86AFFF710F9FA208000FD
:101D300002F0E0FE02F0A6FE21B030BD002002401D
:101D4000E8030020B0030020EFBEADDED404002085
:101D5000104A114B126870B59200D3580F4C1A00FC
:101D60002000191D443220C920C49142FBD10C49E6
:101D70007C330C0020CA20C19A42FBD101222100F1
:101D8000FFF7EAFD2268074B920400D5064B074A8D
:101D9000136070BD3004002094000020E803002090
:101DA000B00300203C020020F4000020D4040020F6
:101DB00070B5FA2502F054FE0024AD00280002F0B0
:101DC00099FE002804D10C4AA300D058FEF778FCF5
:101DD0000134052CF2D1FA20800002F08BFE02F0D3
:101DE00051FE0122054B1A60054B02321A605A60FF
:101DF0009A60DA601A6170BD9400002030040020FF
:101E000080000020774A784B1268F0B59200D158D4
:101E1000764B08000A1D8030591A14688C50043221
:101E20008242FAD1724A5C68116801208C4200D06B
:101E3000D4E0D1681C698C4200D0CFE051699C6924
:101E40008C4200D0CAE011695C698C4200D0C5E0C8
:101E50009169DC698C4200D0C0E0D1691C6A8C4277
:101E600000D0BBE0116A5C6A8C4200D0B6E0906A98
:101E7000D16ADD6A1C6B854200D0B0E08C4200D094
:101E8000ADE0106B516B5D6B9C6B854200D0A6E0A2
:101E90008C4200D0A3E0D26B196C0120914200D09B
:101EA0009CE01900534A443114680978A4078D074F
:101EB000A54200D092E014684D076407E40FED0FCF
:101EC000A54200D08AE014680D072407E40FED0F47
:101ED000A54200D082E01468CD06E406E40FED0FC1
:101EE000A5427BD15D6E146AA54277D19C6E566A7D
:101EF000B44273D116688906B606F60FC90FB1420F
:101F00006CD1180044300678116877064906012024
:101F1000C90FFF0F8F4261D11168F6090906C90F79
:101F20008E425BD11900453116680978B6058F07D6
:101F3000F60FFF0FB74251D11668CF07F605F60F1F
:101F4000FF0FB7424AD1166849077605F60FC90F49
:101F5000B14243D151689E6C8E423FD19168DE6C94
:101F60008E423BD1D1681E6D8E4237D111695E6DB4
:101F70008E4233D151699E6D8E422FD19169DE6DB3
:101F80008E422BD1D1691E6E8E4227D1116A8D42AD
:101F900024D1516A8C4221D1916ADC6E8C421DD1D0
:101FA0001C007734116B2478490F64098C4215D1D9
:101FB0001900453114680978A4048D06E40FED0F6B
:101FC000A5420BD1146849066404E40FC90FA1426D
:101FD00004D1186FD26A801A431E9841F0BD0120C7
:101FE000FCE7C046300400209400002000000020E0
:101FF000E8030020B0030020F0B58DB0FFF7CAFC65
:10200000FFF774FCFFF7A4FD884B894A894D1A60DD
:1020100080232A685B0013432B608023DB002A683F
:102020001A42FCD0AB68844A13400722AB60AB680D
:102030009343AB603823AA68110019401A42FAD1C1
:10204000C020AB687D4A7E4C1340AB607D4A7E4B1E
:1020500000065360236A1B021B0A03432362072303
:1020600091607A48136002F013FE8022AB6B52013C
:102070001343C022AB63764BD2011B6A13409342D9
:102080001CD002F0EDFC02F009FD08230693FF23AB
:102090001B020A93013BFF3B06A80B9302F044FD91
:1020A00002F0F0FC02F00EFD02F01AFDBFF34F8FBC
:1020B000684BE360BFF34F8FC046FDE7A0240120CB
:1020C000FEF756FA01210326E405636862488B4354
:1020D0006360A3680C27B3433343A360E368B3434F
:1020E000E3602368B3432360A3680340A3608023B5
:1020F000E2685B00024013430222E360236803406E
:1021000023606368022093436360A368BB43A360BA
:10211000E368BB43E360A26223689218BB431343A6
:102120002360FEF725FA04214C4A4B4853688B4341
:10213000536093682C318B430B439360D3688B437C
:10214000D36013688B431360536828398B43536003
:1021500011009368C022934313438B60CB68934371
:10216000CB600B6893430B604B68B03A93434B6072
:10217000C0238A689B00024013438B60CB680A002F
:102180000340CB600B68034002200B604B68834325
:102190004B608B680E30BB433B438B60CB68BB43CB
:1021A000CB600B68BB430B604B6801218B435360D2
:1021B0009368B34333439360D368B343D3601368E6
:1021C000B3431360102322691340024254D11C0010
:1021D000234A24481160154A234E1268526802604F
:1021E0000268D15C5A1C00291AD1204D204C2800CD
:1021F0002560FEF799FA31681E4B1A68002AFCD058
:10220000CA78002AF9D0002120681960431C236095
:10221000FEF78AFA23681B78002BECD12560EAE7E9
:102220003568E95433689C541300D9E7D40400207E
:102230003C02002000100240FFF0FFFFFF8FFFFF75
:1022400000ED00E010E000E0DF2E000000366E013F
:10225000002002400400FA05FFFCFFFF00040050CC
:10226000A404002048040020AC000020B00000209E
:10227000A8000020AC0400200420FEF779F93022E9
:102280001021A368D7489343A360E36893430B43AB
:10229000E36023680F399343D34A23609368B343C1
:1022A0009360D368B3430B43D36013683F31B343A8
:1022B00013604368CD4A8B43436083681340836057
:1022C000C3681340C360816203680100802013402B
:1022D0008022400103430B602B6C520313432B6499
:1022E0002B6CC3491340C0220693069B236812023D
:1022F0001343802223600B69D2051B011B09134382
:1023000018220B61CB6804009343CB60CB68083282
:102310009343CB600A00CB68B6490B400721D360DA
:1023200053698B430B4311005361D368B24A134086
:10233000CB60CB68B14A1340CB60CB68B04A134046
:102340000343CB60CB68AF4A08001340CB6008233F
:10235000AD4A8B621368AD490B400421136043689A
:102360000B43C3214360FF20A94B89005A58824385
:102370005A501C60A74C2368153322689342FCDA3C
:10238000FEF700FA2368153322689342FCDA984975
:10239000A14B8A681A40012313438B6023680333DF
:1023A00022689342FCDAFFF7B7FB9C4C051E00D174
:1023B0009EE2FFF7CDFC9A4B1A689A4B920400D527
:1023C000994B0022186803212360FEF7BFFDFFF739
:1023D0008DFA0122954B1A60954A964B1A60964ADF
:1023E0001368002BFCD00120FEF7F2FC934D2B6804
:1023F000002B00D1A5E08A4C2368DB049B0F00D0A2
:10240000C4E200232B602268520500D55AE38C4BAE
:102410001B68002B01D000F08AFC2368894D5B0704
:1024200004D42968002901D100F0BAFC0021814BB5
:102430001868421C1A60FEF777F9834B996B226A81
:1024400091420BD28149824A206A0F681668B742CE
:1024500001D200F0A9FC0A68904214D29A6B236A58
:102460009A420BD9794A7A4B216A166818688642D3
:1024700001D900F09CFC1368994204D923681B071A
:1024800001D500F0B5FC704B996B626A91420BD29A
:102490006E496F4A606A0F681668B74201D200F051
:1024A00089FC0A68904214D29A6B636A9A420BD9EB
:1024B000664A674B616A16681868864201D900F05F
:1024C0007CFC1368994204D92368DB0601D500F02F
:1024D0008FFC00232B6023685B050ED5236BDB008C
:1024E0009B0E0AD1236B5B029B0E06D1236B1B054F
:1024F00003D1236BDB03DB0E06D02368DB049B0FC9
:1025000002D10122534B1A600022534B1A604A4BEE
:102510001A68002A01D100F053FC2268520706D540
:10252000444A12681278002A01D000F049FC0120C8
:10253000FEF74EFC3F4B1A681278002A01D13C4A44
:102540001A60464A1368032B2DD100231360424AB8
:102550001360FEF7FDFD414F3B68032B06D0404E54
:10256000404A3368934201DC00F096FD2C490B6829
:102570005B0705D52F4B2E4A1A600122304B1A609B
:102580000022304B30481A603A600132FFF7E4F91C
:10259000FFF738FC002806D0334A344B126892000B
:1025A000D058FFF773FB324D1D4C2B68314E012B79
:1025B00002D03368012B61D1236B1B050DD1236B36
:1025C000DB03DB0E09D1236B5B029B0E05D1236B72
:1025D000DB009B0E01D101F0D5FB214B264A1A608E
:1025E0004CE0C0460004005000080050FFCFFFFF41
:1025F00000240140FFBFFFFF3FF2FFFFFFDFFFFFAF
:10260000FFEFFFFFFFFFFEFF08270140FFFF3FFF37
:1026100000E100E0D0040020E8FFFF7FD4040020A8
:10262000B00300203C020020F400002090040020B1
:10263000B0000020A800002094040020AC0400207A
:10264000340400202C040020E80300206C04002047
:10265000700400208C040020A404002064040020E6
:10266000B00400201F4E0000300400209400002021
:102670005C04002060040020204E00002B68032B27
:1026800009D03368032B06D02368DB0303D4236807
:102690001B0400D4A5E03368002B01D101F084FBBA
:1026A000802322685B021343236000243460DB4EE6
:1026B0002C603368DA4ADB4D1360DB4B00920193E8
:1026C0001A68DA4BDA4F1A60DA4B1A680493DA4B5D
:1026D0001A602A68D94B1A60D94B1A680593D94BEE
:1026E0001A603A68D84B1A60D84AD94B12689200DF
:1026F000D058FFF7CBFAD74BD7491A68D7480A40CA
:102700001A601A68D6490A401A60059A3C6014603B
:10271000049AD4491460019A146034604269013407
:10272000920922402C600A601968CF4AC90306D575
:1027300040218162CD4909680831C96F11601B6869
:102740001B0407D54021C54B9961C84B1B688833D2
:102750001B68136000211068FDF7E6FF0023C44CDE
:1027600023602368002BFCD0009B1B683360AF4BB9
:10277000B64E1A68AC4B1A60AF4B1A68AD4B1A6074
:10278000AE4B1B682B60AF4BB14D1A68AC4B1A6057
:10279000AD4B1A68A64B1A6033689B005859FFF777
:1027A000D7FAAC4AB34913680B4013601368B249B7
:1027B0000B4013600023B14A1360B14A1360B14A61
:1027C0001360236033689B005859FFF75FFA0122BA
:1027D000A44B1B68D31A1B013F329A4013009F4A37
:1027E0009361A84B1C680093012C6AD100229F4B77
:1027F00011001B689868FEF7A9FB0023009A894D19
:1028000013602C60934C23689B0601D401F0D6FA28
:10281000122063680A2158439B4BC018FDF7EEFC59
:10282000C8231B01C1188F4B984E196030688E4B1E
:10283000022218600193FEF7FBF800213068FDF7D3
:1028400073FF0022924B1A60009B1B68002B06D17D
:102850008F4B1A688F4B9A4201DC01F0B4FA814B1E
:102860008D4E186822688319920607D58B4B12216A
:10287000C3180A205843FDF7C1FC83196360002385
:10288000009A13602B6023685B0705D5844B854A4B
:102890001A600122844B1A600022694B1A60FFF70C
:1028A00025F8012221008148FFF756F8FFF7AAFA20
:1028B000002806D0654A664B12689200D058FFF790
:1028C000E5F97B4B1A68002A00D18FE500221A60D7
:1028D00002237849784D8A680C002A4013438B60A4
:1028E000FDF750FF0121A3682B400B43A3607DE55A
:1028F000FFF750F823682A00FC3329009869FEF797
:1029000025FB01230027574D6C4E2B6023683A00AE
:10291000FC333900D8693760FEF718FB3B0005210E
:1029200001222800FEF734FF2B68654F013B9B0016
:10293000D95900290DD0012333602B68434A013B4C
:10294000136001229B00FA50414A9858FFF79EF904
:1029500031E523680A00FC33186AFEF7F7FA494BA1
:1029600031681A684A48012A04D002689446494AE4
:10297000944505DD002202601A609142C1D0DCE777
:1029800002221F20FEF722FC3060E8E7444B454A54
:102990001A602368DB049B0F00D132E50022334923
:1029A00094463A4F0CE02368DB049B0F42339B00B4
:1029B0001B58985C3B68985462463B689A553200B5
:1029C00023680868DB049B0F42339B001B58561C8E
:1029D0009B5C002BE7D1324E19003068421C3260FC
:1029E000FDF7A2FE33681B78002B01D12D4B33601D
:1029F0000D4B1A68002A09D000221A60174B40328A
:102A00009A62284B3F3A3360064B1A6000232B60D2
:102A10002B68002BFCD00122234BB9E79004002047
:102A200088040020A40400208C04002084040020DA
:102A3000A8040020AC040020800400207C040020B6
:102A40002C040020780400207404002030040020AE
:102A500094000020B0030020FFBFFFFF00040050DF
:102A6000FFFBFFFF4404002048040020D4040020A2
:102A70004C040020FF7FFFFFFFFFFEFF5C040020EF
:102A800060040020640400206A7FF8FFAC0000208E
:102A9000B00400201F4E0000B36A000080F3FFFF67
:102AA000A8000020B000002034040020E80300202B
:102AB0002804002000240140E8FFFF7F400400209C
:102AC00080000020C24A11680192C24A914200DC93
:102AD0009DE4019A1360216BBF4AC9001268890EF8
:102AE00005D1236B5B029B0E00D128E10B00002077
:102AF000BA4AB94900920A68E8321268D55C009A6D
:102B000016685A1C002D00D025E1276B30003F05C8
:102B10003F0DFDF7CFFF002F35D0216B2A000905AF
:102B2000090D3018FDF784FF009B1E683000FDF78B
:102B3000C1FF20233018AA4E3060037033685D70E7
:102B4000009B1F683800FDF7B5FF29003F18A24A17
:102B500037601368EC331B685F5D6B1C002F00D07F
:102B6000FFE09E4B1D682800FDF7A4FF9C4A023839
:102B700028181060236B1B051B0D012B03D11F337D
:102B8000037013685F70236B1B0503D1236BDB039A
:102B9000DB0E3BD0009B1D682800FDF78BFF216BEF
:102BA0000022C903C90E2818FDF742FF009B1D68CB
:102BB0002800FDF77FFF2023894E2D1835602B70EC
:102BC000002533685D70009B1F683800FDF772FFB9
:102BD00029003F18804A37601368F0331B685F5D37
:102BE0006B1C002F00D0C2E07C4B1D682800FDF755
:102BF00061FF7B4A023828181060236BDB03DB0E71
:102C0000012B03D11F33037013685F70236B1B0507
:102C100007D1236BDB03DB0E03D1236B5B029B0E1F
:102C20003BD0009B1D682800FDF744FF216B00226C
:102C30004902890E2818FDF7FBFE009B1D6828003D
:102C4000FDF738FF2023664E2D1835602B700025C8
:102C500033685D70009B1F683800FDF72BFF29006B
:102C60003F185D4A37601368B4331B685F5D6B1CA7
:102C7000002F00D081E0594B1D682800FDF71AFF96
:102C8000574A023828181060236B5B029B0E012BF9
:102C900003D11F33037013685F70009B1D68280009
:102CA000FDF708FF216B0022C900890E2818FDF7E7
:102CB000BFFE009B1D682800FDF7FCFE2023484E48
:102CC0002D1835602B70002533685D70009B1F68E0
:102CD0003800FDF7EFFE29003F183F4A37601368C0
:102CE000B8331B685F5D6B1C002F4CD13B4B1D68DC
:102CF0002800FDF7DFFE02382D183560236BDB005E
:102D00009B0E012B03D11F332B7033685F700021A2
:102D100002220800FEF7A0F90023019A136023683D
:102D20005B0701D4FFF773FB2E4B2F4A1A6000227A
:102D30002E4B01201A60FEF74BF8FFF76EFB216B5C
:102D40000905080D002900D0D1E6216BC903C90E81
:102D50001FD00300CBE6F554009B1B68985413006A
:102D6000C9E63068475530681D00C154F1E6306847
:102D7000475530681D00C1542EE73068475530680C
:102D80001D00C1546FE73068475530681D00C154BD
:102D9000A5E71300F4330A001868FEF7D7F8BBE77D
:102DA0000E4B1868FFF747FB1268FFF755FB1B68CF
:102DB000FFF762FB1268FFF775FB1B68FFF782FBEA
:102DC0001B68002B01D1FFF7B5FB0020FFF7B0FB1C
:102DD000B00400201F4E0000D4040020AC000020EE
:102DE00048040020A8000020B00000203404002087
:102DF0002B68002B0AD19C4A136040229B4B9A629D
:102E00009B4B9C4A1A6001229B4B1A609B4B1B6890
:102E1000002B02D00020FDF7DBFF00232B6023688E
:102E20001B0724D5964B996B226A91420DD3954985
:102E3000954A206A0F681668B7424DD30A689042D7
:102E400003D301212A680A432A609A6B236A9A42B3
:102E50000DD88C4A8C4B216A1668186886423DD87A
:102E60001368994203D804232A6813432B6023680C
:102E7000DB0624D5824B996B626A91420DD381495E
:102E8000814A606A0F681668B74229D30A6890427F
:102E900003D3022229680A432A609A6B636A9A4222
:102EA0000DD8784A784B616A16681868864219D836
:102EB0001368994203D808232A6813432B602868B3
:102EC00001380B2800D9BAE0FDF7FAF83143487B06
:102ED000B9B9B98DB9B9B9921268B0E71B68C0E742
:102EE0001268D4E71B68E4E70768FA5403685E5485
:102EF0000B002268591CCC321268D25C002AF3D134
:102F00002B68002B06D0614B1A68802351785B42F6
:102F10000B4353702B68002B00D193E05C4B1A6875
:102F2000002A00D08EE001321A60FFF703FB002375
:102F3000584C1E005548DCE70768FA5403685E5495
:102F40000B002268591CD4321268D25C002AF3D1DB
:102F5000D6E700234F4C1E004C48F2E7626A236A12
:102F60004C489A421CD200231E00484C0268591C4F
:102F7000CC321268D25C002AC2D02768FA54236887
:102F80005E540B00F2E72768FA5423685E540B0086
:102F90000268591CD4321268D25C002AF3D1AFE720
:102FA00000233A4C1E00F3E70768FA5403685E54A6
:102FB0000B002268591CC8321268D25C002AF3D177
:102FC0009EE70023334C1E003048F2E70768FA54AE
:102FD00003685E540B002268591CD0321268D25C20
:102FE000002AF3D18CE700232A4C1E002748F2E781
:102FF000626A236A27489A421DD900231E00234C87
:103000000268591CC8321268D25C002A00D177E7E6
:103010002768FA5423685E540B00F1E72768FA54D6
:1030200023685E540B000268591CD0321268D25CCF
:10303000002AF3D164E70023144C1E00F3E70023B9
:103040002B605DE72A68002A01D0FFF773FA104B66
:103050001968002901D1FFF76DFA1A60A023023226
:10306000DB059A62FFF766FA8C040020000400502A
:10307000A8000020B0000020A40400209404002038
:10308000E80300206C04002070040020AC00002045
:10309000A8040020D4040020C94B1A68012A07D9CB
:1030A000C84A19681068C84A89080A41104202D003
:1030B0001A68012A12D11A68012A01D100221A6065
:1030C000C24A11680B001E3B581E83415B181360F7
:1030D000FEF73EF8BB4A136801331360BC4B1A6815
:1030E000012A07D9B74A19681068B74A89080A41FE
:1030F000104202D01A68012A11D11A68012A01D19E
:1031000000221A60B14A13681900481E81415B1AF7
:103110001360FEF71DF8AB4A1368013313603B6878
:10312000012B01D0FFF717FA00233B60A74B18686B
:103130001E2849D8A74CFCF7CDFF1F008000AD002A
:10314000B800C000E30003012A017A019A01DF01FF
:1031500071027C0289029B02B10206035D037E03B9
:10316000C6030E041C045B049B04B704E204EF04D2
:10317000110555057805000600222368110018691D
:10318000FDF7E4FE9449954C0A689207920FD31E0E
:103190005842434123600223032A02D00B689B0755
:1031A0009B0F8F4A13603B68012B03D033688D4A15
:1031B000934214DD002333603B60874B03251B687B
:1031C0009B079B0F012B30D80022874B1A60874B3F
:1031D0001A60FDF7BDFFFEF789FBFFF7BCF9804DD4
:1031E000032219202968FDF7F1FF00232860022837
:1031F00001D10023E35603430320774903400A68C3
:10320000824313430B60CEE7022221683F20FDF783
:10321000DDFF02210200704B206018680840104357
:103220001A682840AA4302431A603B68012BCBD09E
:1032300033686C4A9342E7DDC6E7674D20682B6828
:103240009B079B0F012B20D8002211008069FDF7FE
:103250007DFEAA682B6866499B06DB0F013B0B408D
:1032600064495E4C5B18D21A012120002260FEF7EF
:10327000A3F92B68604A9B06DB0F013B13405F4AB2
:103280009B1822689B18AB609EE70022FC3011005F
:103290008068DCE7002223681100D869FDF756FE3C
:1032A00057480A21FEF788F98EE7002223681100AB
:1032B000186AFDF74BFE5348F3E70022236811001C
:1032C000586AFDF743FE444C4949E2682368434D80
:1032D0009B06DB0F013B0B40464928005B18D21AC6
:1032E00001212A60FEF768F92368434A9B06DB0F39
:1032F000013B1340414A9B182A689B18E36063E72F
:10330000002223681100986AFDF720FE80253B68A3
:10331000012B00D158E73368324A934200DD53E76E
:103320002D4C022221682D200906C90FFDF74EFF02
:10333000012223681040C001AB4303432360E6E74A
:10334000002223681100D86AFDF700FE08253B68BB
:10335000214C012B03D03368224A934208DD00231D
:1033600033603B60236828481B0700D42CE798E7AC
:103370002168022209072120C90FFDF727FF01223A
:1033800023681040C000AB4303432360DFE7002203
:1033900023681100C4331868FDF7D8FD10253B6879
:1033A0000D4C012B03D033680E4A934230DD0023CD
:1033B00033603B6023681548DB0600D404E770E700
:1033C0005C040020D0040020FF030000380400202B
:1033D00060040020D4040020B00300204404002036
:1033E000400400201F4E0000B004002064040020B0
:1033F0000EF9FFFFF20600000FF9FFFFF1060000D3
:10340000C8030020CC030020D0030020D4030020F8
:1034100021680222C9062120C90FFDF7D7FE01222B
:10342000236810400001AB4303432360B7E7002249
:1034300023681100186BFDF789FD20253B68012BDF
:1034400000D1C1E63368D74A934200DDBCE6D64CD2
:103450000222216823208906C90FFDF7B7FE012249
:10346000236810404001AB4303432360E6E700229A
:1034700023681100586BFDF769FD0021CB4B0093C9
:1034800019603B68012B03D03368C64A934227DD9D
:10349000002535603D60012900D095E6FEF77AFAF7
:1034A00023682900FC332A00186BFDF74FFD290023
:1034B000009B19603B68012B03D03368B94A9342E3
:1034C00014DD002333603B60012901D1FEF770FC5D
:1034D000B54B1A68B64B920400D5B64B236073E621
:1034E00002221F20FDF772FE0100C7E702221F2003
:1034F000FDF76CFE0100DBE7AB4AAC4913685B05E6
:10350000DB0F0B601368AC490B401360002223688B
:103510001100D8331868FDF719FDA44D3B682968E0
:10352000012B03D033689F4A934271DD002333603F
:103530003B6099425ED0002223681100DC3318689A
:10354000FDF704FD984D9D4A2B6B00921B051B0D4A
:10355000136000239A491A000098FEF719F9009B9E
:103560001A682B6B12051B0B120D1B0313432B63E5
:103570000023002233603B6023681100E0331868A9
:10358000FDF7E4FC2B6B009ADB03DB0E13600023DA
:1035900017211A000098FEF7FBF81F21009A2B6BE9
:1035A00012680A40874912030B4013432B63002320
:1035B000002233603B6023681100E4331868FDF794
:1035C000C5FC2B6B009A5B029B0E136000233B2112
:1035D0001A000098FEF7DCF83F21009B1A682B6B5D
:1035E0000A40794952040B4013432B632B6B774AF3
:1035F00013402B630120764B6B4918606B4B1A68A4
:103600000B6802406C489202034013430B60DBE5F9
:1036100002221F20FDF7DAFD28607EE700222368E2
:103620001100986BFDF792FC1C206A49FDF7A0FE83
:10363000CAE5002223681100D86BFDF787FC03233D
:1036400000223E206449FDF733FEBDE500222368D9
:103650001100186CFDF77AFC0323002225205F4936
:10366000FDF726FE5C4CE068FCF7B4FF2061ABE59B
:10367000002223681100586CFDF768FC2620584989
:10368000FDF776FE544C0023A06AE16AE269FCF77C
:10369000A1FE02000B002263636395E5002223680C
:1036A0001100986CFDF752FC4B4D404EA96AEA6A36
:1036B00093018A0E1A43310002232720326001222F
:1036C000FDF7F6FD33689A119B0603920293029A66
:1036D000039BAA62EB620023A86AE96AEA69FCF725
:1036E00079FE02000B002A636B630022236811003D
:1036F000A8331868FDF72AFC00213A4B31601B689B
:10370000012B04D0384B274A1B68934215DD002952
:1037100000D159E5A86AE96A00232A6AFCF75AFE33
:103720002C692E6B6F6BA41B2418AC61A8692F4BFE
:10373000C018FDF781F8686146E502221F20FDF7F9
:1037400045FD0100D9E7002223681100D86CFDF780
:10375000FDFB0323002226492820FDF7A9FD1E4D6D
:103760006869FCF737FF002223681100AC33A861B9
:103770001868FDF7EBFB00210C4B19603B68012B2F
:1037800003D03368074A934205DD002900D11BE5C9
:10379000FDF7EEFE18E502221F20FDF717FD0100E0
:1037A000EAE7C0461F4E0000B0030020440400209A
:1037B0003C020020F4000020FFFBFFFF3C0400203F
:1037C000E7030000FF0FFEFFFFFF81FFFFFF7FE029
:1037D0008C040020B4030020E8030020F403002040
:1037E0000404002064040020B00400209C43F3552E
:1037F000FC030020002223681100186DFDF7A6FBD2
:103800002920E749FDF7B4FD002223681100AC33FD
:103810001868FDF79BFB0021E24B19603B68012B08
:10382000B3D03368E04A9342AFDC02221F20FDF799
:10383000CDFC0100F0E7002223681100586DFDF770
:1038400085FB0023D74C23603B682168012B32D1D4
:10385000002900D1B8E4D54DD54E28683168D54F40
:10386000484380213B6B49015B0F99403268EC6B08
:10387000891AFCF739FC001BE86028683468EB6B98
:10388000604380243A6B6401520F94403168621A9D
:103890005343C01AFCF79EFE040080203B6B40019E
:1038A0005B0F98403268801AFCF794FEC24BE41814
:1038B000241A2C6188E402221F20FDF787FC0023D4
:1038C00020603360C0E7002223681100986DFDF787
:1038D0003DFB0023B34C23603B682168012B32D1B0
:1038E000002900D170E4B14DB14E28683168B14F64
:1038F000484380213B6B49015B0F99403268EC6B78
:10390000891AFCF7F1FB001B686128683468EB6BCF
:10391000604380243A6B6401520F94403168621A0C
:103920005343C01AFCF756FE040080203B6B400155
:103930005B0F98403268801AFCF74CFE9E4BE418EF
:10394000241AAC6140E402221F20FDF73FFC002353
:1039500020603360C0E7002223681100FC33586CFC
:10396000FDF7F4FA00231A0094489549FDF710FF7B
:103970002AE4002223681100BC331868FDF7E6FA38
:1039800001253B688B4C012B03D03368864A934258
:103990001FDD002333603B602368DB0500D413E4A4
:1039A00023681B0604D420693C21FCF79DFB2061A1
:1039B000002384481A008249FDF7EAFE23681B06AB
:1039C00001D5FFF701FC3C23226953432361FFF734
:1039D000FBFB21680222C9051F20C90FFDF7F6FB7A
:1039E0002368794A28400002134003432360C8E754
:1039F000002223681100C0331868FDF7A7FA0125DB
:103A00003B686C4C012B03D03368674A934220DD3E
:103A1000002333603B6023689B0501D4FFF7D4FB90
:103A200023681B0604D460693C21FCF75DFB6061E0
:103A3000002366481A006249FDF7AAFE23681B06A8
:103A400001D5FFF7C1FB3C23626953436361FFF774
:103A5000BBFB2168022289051F20C90FFDF7B6FBB9
:103A600023685B4A28404002134003432360C7E7B2
:103A7000002223681100B0331868FDF767FA13219C
:103A80004C4C5448236B5B0FC91A00231A00FDF7F6
:103A90007FFE514B186CA36A216B490FC91880B285
:103AA00000F086FFFFF790FB0022424D3D4E2B6B4E
:103AB00011005B0F0C3333602368FC33D868FDF7CB
:103AC00045FA00230C2212213000FDF761FE2B6B1A
:103AD0003268DB000C3A5207DB0813432B63AA6AF7
:103AE0002B6B5B0F9B18132B04D913232A6B520FDC
:103AF0009B1AAB62384B186CAB6A296BCDE700227E
:103B000023681100FC33986CFDF720FA8021002314
:103B10003248334A890029E7002223681100D86D12
:103B2000FDF714FA04253B68012B01D1FFF74CFB8C
:103B300033681D4A934201DDFFF746FB1D4C02220C
:103B400021681F204907C90FFDF740FB01222368A8
:103B500010408000AB4303432360E4E70022236866
:103B60001100186EFDF7F2F940253B68012B01D1D9
:103B7000FFF72AFB33680C4A934201DDFFF724FB71
:103B80000C4C022221681F204906C90FFDF71EFBBD
:103B90000122236810408001AB4303432360E4E724
:103BA00008040020440400201F4E0000E803002009
:103BB000F0000020B003002064BC0CAA2404002004
:103BC000E7030000C0030020FFFEFFFFC403002046
:103BD000FFFDFFFFD803002000240140DC0300208C
:103BE00000FEFFFF002223681100FC33186CFDF774
:103BF000ADF901253B68012B01D1FFF7E5FA3368E8
:103C0000D34A934201DDFFF7DFFAD24C022221684A
:103C10001F204904C90FFDF7D9FA2368CE4A28406E
:103C20008003134003432360E4E70022236811006C
:103C3000FC33586AFDF78AF9C84BC94A00931B68E0
:103C4000013313600023C64DC64C01220521280014
:103C50002360FDF79DFD2B68C34A013B9B009958EB
:103C6000002948D001232360BD4DBC4E2A6833682B
:103C7000013A9A4201D1FFF7A7FABC4A9B00985833
:103C8000FDF7D4FF02223368B74C9B001A512B6812
:103C9000013B336093401B5993421AD10123002208
:103CA0002B60B34B11001B68FC33986AFDF74EF98B
:103CB000AB4D3B682968AF4A012B03D01368A44879
:103CC000834234DD002313603B60994201D0FEF74C
:103CD0003FF80122009B9F491B68A7489B00E250C8
:103CE000FDF73AFE009AA14B12689200D058FDF7FA
:103CF000CDFFFFF769FA9E4B0A001B68FC33186A78
:103D0000FDF724F93B6821689A4A012B03D0136818
:103D10008F48834205DD002313603B60994291D0B8
:103D2000A2E702221F20FDF751FA2060EAE70222F3
:103D30001F20FDF74BFA2860BAE700222368110024
:103D4000FC33586BFDF702F93B68824D012B03D021
:103D500033687F4A934205DD002333603B602A6865
:103D6000FFF7B8FB2968022289044D20C90FFDF72F
:103D70002DFA01222B681040804A40031340034370
:103D80002B60E1E723685B0501D4FEF777FC23682D
:103D90007B4A1340714A23601268744B9200D058DA
:103DA000FDF774FFFEF76AFC2B68002B01D1FEF7CC
:103DB0007CFC802322681B02FEF775FC6168714B56
:103DC000C918FEF730FD704B1A68012A07D91A6826
:103DD0006E4B920819686E4B1341194203D06A4B1F
:103DE0001B68012B3BD10022674B2A60196801290F
:103DF00000D11A605A4B1E680A361E602368A069FB
:103E00009B0600D49CE012235843624B0A21C01841
:103E1000FCF7F4F9C8231B01C018514F86420FDD8F
:103E20002368A0699B0600D48CE012235843594BA9
:103E30000A21C018FCF7E2F9C8231B01C01838603A
:103E4000019B022218683968FCF7F2FD524B0021F1
:103E50001868FCF769FC4D4A1368013313604F4B37
:103E60001A68012A07D91A68484B92081968484B02
:103E70001341194203D0494B1B68012B39D1002251
:103E8000464B2A601968012900D11A60344B1E681C
:103E90000A3E1E602368E0699B0655D512235843ED
:103EA0003C4B0A21C018FCF7A9F9C8231B01C01814
:103EB0002B4F86420EDA2368E0699B0646D5122313
:103EC0005843344B0A21C018FCF798F9C8231B014A
:103ED000C0183860019B022218683968FCF7A8FDF9
:103EE0002D4B00211868FCF71FFC284A136801338A
:103EF00013602A4B1B68002B05D1234B1B68002B3A
:103F000001D101332B60164A254B1168994200DD1F
:103F10001360236823499B06DB0F2348013B0B40BA
:103F20001B181068984201DBFEF78EFC23689B0685
:103F3000DB0F013B0B401C495B181360FEF784FC50
:103F4000104B69E70F4B79E70E4BB0E70D4BBFE71E
:103F50001F4E0000B0030020FFBFFFFF3004002011
:103F60004404002040040020800000209400002031
:103F7000D4040020B0040020E8030020FFDFFFFF8E
:103F8000FFFBFFFF4D95FFFF5C040020D0040020E5
:103F9000FF0300006A7FF8FFAC00002060040020EF
:103FA0003C860100BA4C00009348FFFF7047FEE7D3
:103FB00070477047F0B5BB4DBB4C2B6885B00133E3
:103FC0002B602368013303932360B84B1868019377
:103FD000B74B19680293019B1A680123884200DBE2
:103FE00000239B18019A1360B24AB34B16681868F5
:103FF00001231168864200DB00235B181360AF4B7E
:10400000AF4A1968914202DC1A6801321A60AD4B5E
:1040100000211A6801321A60182A00D01968AA4AC9
:1040200019601168A94B490500D4DEE0FA26A848BA
:10403000F60001680131B14269D001600120FA2621
:10404000A44AA54910600A68760012180A60B242B4
:1040500003D100220A60A14A1060A14A1268002A16
:1040600000D1CDE0984A1268520400D4C8E02A6812
:10407000D20703D508680222FA2801DC80229202C6
:10408000A020C0058261A0200325C00502680C267F
:10409000AA43026030201A6882431A601A6890307E
:1040A00082431A6018688F4A104018601868B0433D
:1040B00018601868A84318608B480068002803D06F
:1040C0000868F92800DC50E388480068002803D01D
:1040D0000868F92800DC38E17A480068132800D91C
:1040E00033E1FBF7F7FF96003201A900BD00CE00D7
:1040F00049013201320132015A01320132013201E9
:104100003201650132013201320132011B0100210D
:104110000160116BC900890E0AD1116B4902890E29
:1041200006D1116B090503D1116BC903C90E4DD01E
:10413000116B6F4EC900890E0BD03F27116B106BAE
:10414000C900890E3F313940C9053040084310632A
:1041500074E7EC21106B4905304001431163116B8A
:10416000644E4902890E08D03F27116B106B49023B
:10417000890E3F3139404904E7E7EC21106BC90350
:10418000304001431163116B5B4EC903C90E08D067
:104190001F27116B106BC903C90E1F31394009036A
:1041A000D3E7B821106B4902304001431163116B12
:1041B000090500D142E7106B504E116B00058019C4
:1041C000090B000D09030143116337E74C4A1160E5
:1041D00040225969114200D09A62414A116800296F
:1041E00000D02BE70131116028E73D4A1168002912
:1041F00000D123E743490968002900D01EE7F2E710
:10420000A0220220D2055569054200D13BE7906209
:1042100039E73D48007840B2002800DB95E03B4894
:10422000986130201D688543203828431860C020DD
:104230001D688543803810E033480078800700D43B
:1042400083E033489861C0201D6885438038284347
:10425000186080201D68400015402843186074E0F5
:1042600029480078C00770D52A489861C0201D6889
:1042700085438038284318600C201D688543083822
:10428000EBE721480078C0065FD523489861C0203D
:104290001D68854380382843186003201D688543C6
:1042A0000238DAE7D004002084030020CC04002088
:1042B000C0040020C8040020C4040020B004002072
:1042C000204E0000BC040020B00300200004005079
:1042D000D8040020B8040020B4040020AC0400205E
:1042E000A8040020FFFCFFFFA4040020A00400207D
:1042F000FFFF7FE0FFFF81FFFF0FFEFF0000F0FFE9
:104300008C0400202C040020680400200800040015
:10431000100008000200080001000800824805782B
:104320000820054211D098618025A0206D02C005AB
:104330008561C0251E68AE43803D35431D60032561
:104340000668AE43023D35430560784800680028A2
:1043500003D00968F92900DC81E075490868013853
:104360000F287CD8FBF7ACFE2F7B7B7B7B41526513
:104370007B97A27B7B7BB3BE6B48057840200542D0
:10438000E3D06C4D9D6180251E686D00164035435D
:10439000C0261D601D68B5435FE76348007880064E
:1043A000D3D5654898610C201D68854308383CE7E3
:1043B0005D4800784007C8D56048986103201D68B3
:1043C0008543023831E75849497849B2002946DA2D
:1043D0005B4999613021186888432039014319608D
:1043E000802118684900104020E04F49497889072A
:1043F00035D554499961802118684900104001431E
:1044000019600C211868884308390FE0464948783C
:104410000121084223D04C48986180201D6840004B
:1044200015402843032518601868A8430143196004
:1044300015E03D494978490711D58021A02049035D
:10444000996101218025C00581611E686D001640BB
:10445000354303261D600568B543294301603B4988
:104460000968002904D03A490968F92900DC8BE081
:104470002F4908680C380A2800D985E0FBF72AFE86
:104480003D00720084008400840077018D01840067
:10449000A601B701CE01244949780907DFD52D4986
:1044A00099610C2118688843083997E71E494978B3
:1044B0004906D4D5284999610C21186888430839E0
:1044C000014319600321186888430239AEE7164991
:1044D00049788906C3D52149996103211868884321
:1044E00002397BE710494978C906B8D51C4999615A
:1044F000032118688843023981E70B498978090745
:1045000042D58021A0208902996101210C25C00596
:1045100081611E68AE43083D354303261D60056872
:10452000B543294301602FE0680400209C0400206B
:10453000BC04002008001000080002000800010070
:104540001000040002001000010010009804002078
:10455000B40400201000020001000200100001005D
:1045600002000100C9498878012108420CD00325C6
:10457000C74898611868A84301431960302118683A
:104580008843203901431960C249096817297BD142
:10459000A02103253026C9050868A84308601868CB
:1045A000B043186018689036B0431860186802402D
:1045B0000C201A601A6882431A601A680430AA43F1
:1045C0001A600D69B44A2E00B4490640054200D075
:1045D00031E1B34806601068013010601068C043D4
:1045E000800604D112680132920901320A60A022C9
:1045F000D205166904253700AA4AAB482F402E423F
:1046000000D025E1A64D2F601568013515601568AD
:10461000ED43AD0604D11268013292090132026005
:10462000A24A01251669A24A37002F402E4200D027
:104630001BE19B4D2F601568013515601568ED4332
:10464000AD0605D112689B4D0132920901322A60F4
:10465000026808689749024309680A4396490A6054
:10466000964A1268002A0FD095490A68002A0BD191
:104670009448039D854200DD04E19348934A816894
:10468000114004220A438260914A1268002A6CD0C9
:104690009049914C0A6891489207914D914F920F21
:1046A000012A00D924E1AE6B3A6894460A6866454F
:1046B000B6419207920F013A51424A4176429642E0
:1046C00003D1A96B3A6891420FD187490A68013238
:1046D000012A0AD801220A607E4A11680022C9050F
:1046E00001D4029A126801990A607D4F7F4EBA6B1D
:1046F000784D9446326803922A689207920F013AE5
:1047000011004A424A410399614589414942914217
:1047100003D1B96B326891420BD1022672490A6803
:104720000132B24305D10A602968890500D40268C4
:104730002260019A1168029A1268914208DB6A4A63
:104740001268012A04D159693F32114200D19A619D
:1047500021680268914208DB634A1268002A04D18A
:1047600059694032114200D09A6205B0F0BD474904
:104770008978890700D407E78021A025490299613B
:104780000121ED05A96103261868B04308431860AC
:104790002868B04301432960F6E63C498978490618
:1047A00000D4F1E6042180209961A0214002C905CE
:1047B000886130201D688543203828431860032015
:1047C0000D688543023828430860DDE62F49897863
:1047D000890600D4D8E6102180209961A0214002EA
:1047E000C905886180201D6840001540E5E727491C
:1047F00088780421084200D1C6E60220802598610D
:10480000A0200C26C0056D0285611D68B5432943B3
:104810001960032105688D43023982E61B498978B6
:10482000C90600D4B0E6A02580200121ED05400294
:104830009961A861A7E71068002807D010683E2892
:1048400004D80120086000201060D0E60020F9E7BD
:104850001568002D07D015683E2D04D80125056088
:1048600000251560DCE60025F9E71768114E002FDA
:1048700006D017683E2F03D8356000251560E7E69F
:104880000025F9E7012022600860FDE668040020A9
:1048900004000100BC040020500400205C0400203F
:1048A000B0040020540400206004002000080050E0
:1048B00058040020640400204C04002090040020D0
:1048C00028040020FFDC6D0000240140E8FFFF7F8A
:1048D0008C040020B0030020C8040020C404002081
:1048E000E803002070040020880300206C040020EE
:1048F000AA6B3E68B24205D9294AAF6B16680122FD
:10490000B7420BD8274AAF6B16680022B74205D2D0
:10491000AA6B234D2D68AA42924152420D68AD0701
:10492000AD0F033D6E1EB541AA420ED01E4D2A6842
:104930000132012A09D801222A600D680022ED0502
:1049400001D4029A1268019D2A60184D154EAF6B72
:104950003268974206D9AA6B9446114A1768012219
:10496000BC450AD8AF6B36680022B74205D2AA6BA5
:104970000B4D2D68AA42924152420D68AD07AD0F12
:10498000033D6E427541954200D1D2E60226064DA6
:104990002A680132B24300D0CBE609682A60C4E637
:1049A0006C0400207004002088030020E80300202D
:1049B0008840014B186070478C030020164A70B580
:1049C0001368164C013305D10500236B5B0F5B1890
:1049D0009D401560FD2501232D01A84206D22F25FB
:1049E000002385425B412C3D5B002B4025680C4E2B
:1049F000DB0235402B4323602368DB049B0F07D188
:104A0000236B15685B0F5B1828181D41401B106055
:104A10001068084170BDC0468C030020B003002020
:104A2000FFE7FFFF04220A4B10B5196811420DD0B1
:104A30001A60186C074B80B2DA6A996A8018FFF71F
:104A4000BDFF0122044B1860044B1A6010BDC04624
:104A500000240140B0030020F00000209404002056
:104A60000020054B5A69824205DA044A9A60044ADA
:104A70009A605869C00F70470020024023016745C3
:104A8000AB89EFCD8022044B120659690A435A6163
:104A90005869C043C00F704700200240064B0120F8
:104AA0005A69520006D5054ADA60054ADA605B6940
:104AB0009B0F18407047C046002002403B2A19084F
:104AC0007F6E5D4C80220120044BD20559690A4358
:104AD0005A615B699B0F98437047C04600200240B3
:104AE0008023034A1B05516901200B435361704722
:104AF0000020024070B5802504006D02084B1A6941
:104B0000100028402A4208D0002C01D1012006E0E4
:104B1000012000F0A7F8013CF0E7024A1A6170BDDD
:104B20000020024011800000F8B5484C01002078B8
:104B3000012800D188E001232370454B45485A687D
:104B4000454B1204520F920012585D681068C6055A
:104B5000F60DB5422AD19F680501AD0DAF4225D1B2
:104B60005D698003C00D854220D15068DF68C505AE
:104B7000ED0DAF421AD11D690001000D854215D11E
:104B800090689D698003800B85420FD1D068DD69F4
:104B90008003800B854209D110691F6A85B2AF423C
:104BA00004D15D6A8000800C85421FD05E60106871
:104BB0000001800D986010688003C00D5861506836
:104BC000C005C00DD86050680001000D18619068E4
:104BD0008003800B9861D0688003800BD8611069D6
:104BE00080B2186212699200920C5A6208681B4BDC
:104BF000C20703D54A68D24392B2DA62820704D56B
:104C0000CA688D6812022A435A62000709D5FF203C
:104C10000D691A6A4969284382430A43AA210A4353
:104C20001A628022596992020A435A6180225969A4
:104C300052040A435A61FA20FF22094B80001A608D
:104C4000FFF758FF00232370F8BDC046DC040020A6
:104C500000100240385A0008FC20024000200240A8
:104C600080200240094A82B013680193019B431CD3
:104C7000591E8B41C01880235B02002801D102B06D
:104C8000704711681942FCD00138F6E710E000E0E7
:104C9000014B18607047C046900300200F4A10492E
:104CA000536809681B0C1B040B4353600D4B516880
:104CB0001B680D481B0401400B43536080220B4BC3
:104CC00012059A600A4B82B00193C046019B5A1E9E
:104CD0000192002BF9D102B07047C046001002408B
:104CE0000001FF1F4401FF1FFFFF00FE00ED00E079
:104CF000E09304000D4885460D480E490E4A0023F6
:104D000002E0D458C4500433C4188C42F9D30B4A7F
:104D10000B4C002301E013600432A242FBD3FFF7E7
:104D2000BDFFFBF701FCFDF767F9FEE7000C002073
:104D30000000002094030020685A0008940300201B
:104D4000F4040020FEE70000F0B5CE469946030CBF
:104D50009C46130447461B0C1D000E0061460404CC
:104D6000240C80B50700100C4B436543414360435E
:104D70002C0CC01824188C46A34203D980235B0254
:104D80009846C444494679435643230C2D042D0CC0
:104D90008919634424046019C918C0BCB946B046D7
:104DA000F0BDC046F8B5CE46474680B59146984618
:104DB00004000D0000F014F807000E0002000B00C4
:104DC00048464146FFF7C0FF241A8D41089B380032
:104DD00031001C605D60C0BCB946B046F8BDC0463D
:104DE000F0B5D6464F464646C0B504000D0010004B
:104DF000190082B0002D00DA87E0002B0BDB1600D3
:104E00001F00AB4219D90020002102B0E0BCBA4615
:104E1000B146A846F0BD002746428F41AF4204D8B4
:104E200000D082E0A64200D87FE0002000218FE081
:104E3000002746428F419F42E5D8AF4200D198E01B
:104E40000023994639003000FBF7E8FA8046290034
:104E50002000FBF7E3FA43461B1A9846203B00D597
:104E60007CE0310099409A460B0031004046814079
:104E70000A00AB425FD85CD05146A41A9D4100297C
:104E800000DA93E0002100200126009001915146B4
:104E90008E400196414601268E40414600960029EB
:104EA00050D0D90756080E435F084146012200231F
:104EB0000CE0AF4201D1A6420AD8A41BBD4124197F
:104EC0006D410139A4185D41002906D0AF42F0D9E7
:104ED000013924196D410029F8D1009801995346F0
:104EE00000196941002B48DB2E002C00DE404346B0
:104EF000DC405346002B50DB34009C4023004446EA
:104F0000A6403200801A99411EE000236242AB4164
:104F100014001D0000298BDB06000F00994200D908
:104F200071E702D1904200D96DE701235B429946B7
:104F300088E7A142A0D900210020009001914146BC
:104F40000029AED1009801994B46002B00D15CE7B7
:104F500003000C0000215842A14156E742463800A8
:104F60009A462023310090409B1AD94003000B43FE
:104F70007BE7A64200D863E745E7424620239B1A19
:104F80002A009A40260013004246D6402C001E43B9
:104F90004346DC405346002BAEDA42462023350020
:104FA00094409B1ADD4023002B43A8E7414620266E
:104FB0000127761A00200021F74000900191019707
:104FC00068E7C046002310B59A4200D110BDCC5C02
:104FD000C4540133F8E70000F8B5C046F8BC08BC7B
:104FE0009E467047F8B5C046F8BC08BC9E46704760
:104FF00000CA9A3B00E1F5058096980040420F00F8
:10500000A086010010270000E803000064000000F3
:105010000A00000001000000303030303030303005
:1050200030303030300048304C41205330792056F9
:10503000572D313230392D507920563130200074BF
:10504000456D4D50457241747572412030624A453C
:105050007469566F200020500046756E63696F6E4C
:105060002064454C204150417241746F20004572CC
:10507000726F722064452043414C696272416369DA
:105080006F6E204164632000486953744572455334
:105090006953200074456D4D5045724174757241DD
:1050A000206D4D415320414C7441200074456D4D9D
:1050B0005045724174757241206D4D4153206241DB
:1050C0004A412000414A7553744520644520644597
:1050D0005356694163696F6E200072457472415383
:1050E0006F2000414C41726D4D41203120004553ED
:1050F0007441624C4563457220455343414C412005
:105100000056414C3072455320644520464162723E
:10511000696341203F200045646974417220306218
:105120004A457469566F20726F64416E646F200047
:1051300043416D4D6269417220725F50754C4C75F0
:1051400050200043416D4D6269417220725F3020F2
:105150000043416D4D6269417220745F302000430D
:10516000416D4D62694172206245744120004341A6
:105170006D4D6269417220725F31200043416D4D77
:105180006269417220745F3120004341507475722E
:10519000417220725F302000434150747572417239
:1051A00020725F31200050416E74414C4C412047C9
:1051B000697241746F726941203F20006D4D6F53D9
:1051C00074724172204C6F53206D4D456E534147B0
:1051D0004553203F200043414C456E7441646F723B
:1051E0002000456E46726941646F72200030624A49
:1051F000457469566F203D2000202A462000202A51
:10520000432000206E6F0020536900304646002086
:10521000306E0043454C5369755320004641726817
:10522000456E484569742000725F30203D2000744F
:105230005F30203D200062457441203D2000725FB8
:1052400031203D2000745F31203D20006D4D6F64A2
:1052500069466963417220725F31203F20006D4DC5
:105260006F646946696341722062457441203F2042
:105270000043416D4D626941722050726F46756EF8
:1052800064696441642064452046694C74726F20EF
:10529000006D4D696E75746F532000534547756EF0
:1052A000646F5320007245747241536F20456E2025
:1052B000456E63456E6469646F203F2000724574DB
:1052C0007241536F20456E204150414741646F2029
:1052D0003F2000414C41726D4D4120322000414C35
:1052E00031206D4D7579204672696F00414C312037
:1052F0006D4D75792043414C69456E744500414CB4
:1053000032206D4D7579204672696F00414C322014
:105310006D4D75792043414C69456E74450041637C
:1053200074695641722046756E63696F6E207445CC
:105330006D4D506F72697A41646F72203F20006436
:105340006941532072455374416E7445532000489F
:105350006F7241532072455374416E74455320005F
:105360006D4D696E75746F532072455374416E7440
:10537000455320007469456D4D506F20724553743C
:10538000416E7445203D2000646941532000486F00
:10539000724153200046754572412064452074696E
:1053A000456D4D506F202D204150417241746F204A
:1053B00050417241646F2000725F50754C4C7550C3
:1053C000203D20004163746956412064456E74722B
:1053D0006F20004163746956412046754572412033
:1053E00000416E63687572412056456E74416E418E
:1053F000200050726F46756E646964416420626972
:10540000745320416463200053456E536F722064CF
:105410004553636F6E45637441646F206F20644130
:105420004041646F200053456E536F7220456E20DB
:10543000636F72746F206F204741537441646F2013
:1054400000304A30202D2050457246694C2064417E
:105450004041646F202D207553417220694775418A
:105460004C6D4D456E7445203F200043416D4D62AB
:105470006941722050457246694C204163746956F7
:105480006F2000434172476F206441746F53206462
:10549000455364452050457246694C203F200045E5
:1054A00072726F72204775417264416E646F205052
:1054B000457246694C2000626F7272417220746FAF
:1054C000646F53204C6F532050457246694C4553CE
:1054D000203F0043416D4D62694172206964696FEC
:1054E0006D4D412000314E474C45532000455350EF
:1054F0004140304C20004163746956417220536F23
:105500006E69646F203F2000724553695374456E85
:105510006369412064454C204341624C4520456EFF
:105520002030486D4D696F53202000414A755374F7
:105530004520416443200048454C4C302074686944
:10554000532069532056572D313230392D50792050
:10555000563130200050726F4772416D4D696E4771
:105560002056572D313230392D5079200074417238
:105570004745742074456D4D5045724174757245B0
:1055800020006445566943452046756E6374696F13
:105590006E20004572726F72204164632043414C5B
:1055A0006962724174696F6E200048795374457264
:1055B0004553695320004869476845537420744532
:1055C0006D4D504572417475724520004C6F5657B1
:1055D0004553742074456D4D504572417475724544
:1055E00020003046465345742041644A7553742068
:1055F0000064454C41792000414C41726D4D203191
:105600002000534574205343414C452000464143FC
:10561000743072792064454641754C74203F0045D2
:105620006469742074417247457420627920726FF6
:105630004C4C696E4720004348416E474520725FDD
:1056400050754C4C755020004348416E47452072C0
:105650005F3020004348416E474520745F30200092
:105660004348416E4745206245744120004348410C
:105670006E474520725F3120004348416E47452008
:10568000745F312000536E415053486F7420725F35
:1056900030203F2000536E415053486F7420725F9A
:1056A00031203F2000646953504C417920726F4C87
:1056B0004C696E47203F2000646953504C4179206B
:1056C0006D4D45535341474553203F2000484541C8
:1056D0007445722000436F6F4C4572200056576925
:1056E0006E646F56572000744172474574203D2008
:1056F000007945530075506441744520725F312034
:105700003F20007550644174452062457441203F3C
:1057100020006D4D6F646946792046694C7445726E
:1057200020644550746820006D4D696E7574455352
:105730002000534543306E6453200064454C41794A
:10574000206F6E207475726E5F6F6E203F20006454
:10575000454C4179206F6E207475726E5F6F4646BE
:10576000203F2000414C41726D4D20322000414CC1
:105770003120746F6F20436F4C6400414C312074B2
:105780006F6F20486F7400414C3220746F6F20435C
:105790006F4C6400414C3220746F6F20486F74006E
:1057A000456E41624C452074696D4D4572204675C9
:1057B0006E6374696F6E203F200064417953204C02
:1057C0004546742000486F757253204C454674203E
:1057D000006D4D696E75744553204C45467420002C
:1057E00074696D4D45204C454674203D2000644150
:1057F00079532000486F757253200074696D4D45D0
:105800006420307574202D2064455669434520532B
:10581000746F505045642000416374695645206997
:105820006E536964452000416374695645203075A4
:10583000745369644520005657696E646F5657204B
:105840005657696474682000416463206269742D4E
:105850006445507468200053456E536F722064692C
:1058600053636F6E6E4563744564206F72206441AC
:105870006D4D41474564200053456E536F72205370
:10588000686F72744564206F722056576F726E2075
:105890006F757420006E6F2056414C696420507201
:1058A0006F46694C4520466F756E64202D20644517
:1058B0004641754C7453204C30416445642000507F
:1058C0004C454153452053454C454374206E455645
:1058D000572050726F46694C452000565741726EF2
:1058E000696E47202D20436F727275507465642075
:1058F00050726F46694C452D2075534520416E7995
:1059000056574179203F20004348416E4745204388
:10591000757272456E742050726F46694C45200056
:105920004C30416420644174412046726F6D4D20BB
:1059300050726F46694C45203F20004572726F726D
:1059400020534156696E472050726F46694C45207E
:1059500000457241534520414C4C2050726F4669BE
:105960004C4553203F20004348416E4745204C4161
:105970006E47754147452000454E474C31534820FE
:10598000005350414E3153482000456E41624C4512
:1059900020536F756E64203F200056576972452072
:1059A000724553695374416E634520696E203048D7
:1059B0006D4D5320200041646320304646534574AA
:1059C0002000201F1E1E1D1D1D1D1C1C1C1C1C1C20
:1059D0001C1C307E3130326D33793433355B365FA9
:1059E0003770387F397B4177621F630D643D454FC7
:1059F0004647475E48376904506772056F1D51730B
:105A0000751C740F535B5A6D49064A386B0F4C0E68
:105A10004E76561E3D092D015F086E154055793BA7
:105A2000573C4D726D66434E68172A637A6C3F652A
:105A30002702200023FF00001C01FF1F1C01FF1F85
:105A40001C01FF1F1C01FF1F1C01FF1F3001FF1F56
:085A50001C01FF1F1C01FF1FD8
:085A580088F3FF7F010000004C
:045A6000F504000841
:045A6400C904000869
:105A6800EFBEADDE000000000000000000000000F6
:105A7800000000000000000000000000000000001E
:105A8800000000000000000000000000000000000E
:105A980000000000000000000000000000000000FE
:105AA80000000000000000000000000000000000EE
:105AB80000000000000000000000000000000000DE
:105AC80000000000000000000000000000000000CE
